{
  "address": "0x6c5404e2eFD90EA936336E0ddCf2d7D7f9B6270e",
  "abi": [
    {
      "inputs": [],
      "name": "ZamaProtocolUnsupported",
      "type": "error"
    },
    {
      "anonymous": false,
      "inputs": [
        {
          "indexed": true,
          "internalType": "uint256",
          "name": "capsuleId",
          "type": "uint256"
        },
        {
          "indexed": true,
          "internalType": "address",
          "name": "owner",
          "type": "address"
        },
        {
          "indexed": true,
          "internalType": "address",
          "name": "heir",
          "type": "address"
        },
        {
          "indexed": false,
          "internalType": "uint256",
          "name": "unlockTime",
          "type": "uint256"
        }
      ],
      "name": "CapsuleCreated",
      "type": "event"
    },
    {
      "anonymous": false,
      "inputs": [
        {
          "indexed": true,
          "internalType": "uint256",
          "name": "capsuleId",
          "type": "uint256"
        },
        {
          "indexed": true,
          "internalType": "address",
          "name": "unlocker",
          "type": "address"
        }
      ],
      "name": "CapsuleUnlocked",
      "type": "event"
    },
    {
      "inputs": [
        {
          "internalType": "uint256",
          "name": "capsuleId",
          "type": "uint256"
        }
      ],
      "name": "canUnlock",
      "outputs": [
        {
          "internalType": "bool",
          "name": "",
          "type": "bool"
        }
      ],
      "stateMutability": "view",
      "type": "function"
    },
    {
      "inputs": [],
      "name": "capsuleCounter",
      "outputs": [
        {
          "internalType": "uint256",
          "name": "",
          "type": "uint256"
        }
      ],
      "stateMutability": "view",
      "type": "function"
    },
    {
      "inputs": [
        {
          "internalType": "uint256",
          "name": "",
          "type": "uint256"
        }
      ],
      "name": "capsules",
      "outputs": [
        {
          "internalType": "uint256",
          "name": "unlockTime",
          "type": "uint256"
        },
        {
          "internalType": "address",
          "name": "owner",
          "type": "address"
        },
        {
          "internalType": "address",
          "name": "heir",
          "type": "address"
        },
        {
          "internalType": "bool",
          "name": "exists",
          "type": "bool"
        },
        {
          "internalType": "bool",
          "name": "unlocked",
          "type": "bool"
        }
      ],
      "stateMutability": "view",
      "type": "function"
    },
    {
      "inputs": [],
      "name": "confidentialProtocolId",
      "outputs": [
        {
          "internalType": "uint256",
          "name": "",
          "type": "uint256"
        }
      ],
      "stateMutability": "view",
      "type": "function"
    },
    {
      "inputs": [
        {
          "internalType": "externalEuint32[]",
          "name": "encryptedContentChunks",
          "type": "bytes32[]"
        },
        {
          "internalType": "bytes",
          "name": "inputProof",
          "type": "bytes"
        },
        {
          "internalType": "uint256",
          "name": "unlockTime",
          "type": "uint256"
        },
        {
          "internalType": "address",
          "name": "heir",
          "type": "address"
        }
      ],
      "name": "createCapsule",
      "outputs": [
        {
          "internalType": "uint256",
          "name": "capsuleId",
          "type": "uint256"
        }
      ],
      "stateMutability": "nonpayable",
      "type": "function"
    },
    {
      "inputs": [
        {
          "internalType": "uint256",
          "name": "capsuleId",
          "type": "uint256"
        }
      ],
      "name": "getCapsuleInfo",
      "outputs": [
        {
          "internalType": "uint256",
          "name": "unlockTime",
          "type": "uint256"
        },
        {
          "internalType": "address",
          "name": "owner",
          "type": "address"
        },
        {
          "internalType": "address",
          "name": "heir",
          "type": "address"
        },
        {
          "internalType": "bool",
          "name": "exists",
          "type": "bool"
        },
        {
          "internalType": "bool",
          "name": "unlocked",
          "type": "bool"
        }
      ],
      "stateMutability": "view",
      "type": "function"
    },
    {
      "inputs": [
        {
          "internalType": "uint256",
          "name": "capsuleId",
          "type": "uint256"
        }
      ],
      "name": "getEncryptedContents",
      "outputs": [
        {
          "internalType": "euint32[]",
          "name": "",
          "type": "bytes32[]"
        }
      ],
      "stateMutability": "view",
      "type": "function"
    },
    {
      "inputs": [],
      "name": "getTotalCapsules",
      "outputs": [
        {
          "internalType": "uint256",
          "name": "",
          "type": "uint256"
        }
      ],
      "stateMutability": "view",
      "type": "function"
    },
    {
      "inputs": [
        {
          "internalType": "address",
          "name": "user",
          "type": "address"
        }
      ],
      "name": "getUserCapsules",
      "outputs": [
        {
          "internalType": "uint256[]",
          "name": "",
          "type": "uint256[]"
        }
      ],
      "stateMutability": "view",
      "type": "function"
    },
    {
      "inputs": [
        {
          "internalType": "uint256",
          "name": "capsuleId",
          "type": "uint256"
        }
      ],
      "name": "unlockCapsule",
      "outputs": [],
      "stateMutability": "nonpayable",
      "type": "function"
    },
    {
      "inputs": [
        {
          "internalType": "address",
          "name": "",
          "type": "address"
        },
        {
          "internalType": "uint256",
          "name": "",
          "type": "uint256"
        }
      ],
      "name": "userCapsules",
      "outputs": [
        {
          "internalType": "uint256",
          "name": "",
          "type": "uint256"
        }
      ],
      "stateMutability": "view",
      "type": "function"
    }
  ],
  "transactionHash": "0x22e003751edeca707a861e5cba6b7339c58a5a4c5ddda746fa852f902384e2d8",
  "args": [],
  "numDeployments": 3,
  "solcInputHash": "0da10d1606f813f82514c9df27a02372",
  "bytecode": "0x608060405234801561000f575f5ffd5b506100c461001b6100c9565b80517f9e7b61f58c47dc699ac88507c4f5bb9f121c03808c5676a8078fe583e464970080546001600160a01b03199081166001600160a01b039384161790915560208301517f9e7b61f58c47dc699ac88507c4f5bb9f121c03808c5676a8078fe583e46497018054831691841691909117905560408301517f9e7b61f58c47dc699ac88507c4f5bb9f121c03808c5676a8078fe583e46497028054909216921691909117905550565b610238565b604080516060810182525f808252602082018190529181019190915246600103610122575060408051606080820183525f8083526020808401829052928401819052835191820184528082529181018290529182015290565b4662aa36a7036101a1575060408051606080820183525f8083526020808401829052928401528251908101835273f0ffdc93b7e186bc2f8cb3daa75d86d1930a433d81527392c920834ec8941d2c77d188936e1f7a6f49c1279181019190915273be0e383937d564d7ff0bc3b46c51f0bf8d5c311a9181019190915290565b46617a690361021f575060408051606080820183525f8083526020808401829052928401528251908101835273f0ffdc93b7e186bc2f8cb3daa75d86d1930a433d81527392c920834ec8941d2c77d188936e1f7a6f49c1279181019190915273be0e383937d564d7ff0bc3b46c51f0bf8d5c311a9181019190915290565b6040516373cac13b60e01b815260040160405180910390fd5b6110e0806102455f395ff3fe608060405234801561000f575f5ffd5b50600436106100c4575f3560e01c80635daceb001161007d578063b06d3c8d11610058578063b06d3c8d146101f0578063d2db53d7146101f8578063d94a7af514610201575f5ffd5b80635daceb00146101b45780638927b030146101d5578063a0d79fb5146101dd575f5ffd5b806329c1eff1116100ad57806329c1eff11461012d578063366636f71461014d578063517bbf4614610160575f5ffd5b80632178c0a2146100c85780632987ace5146100dd575b5f5ffd5b6100db6100d6366004610e51565b610224565b005b6100f06100eb366004610e51565b6103fa565b604080519586526001600160a01b0394851660208701529290931691840191909152151560608301521515608082015260a0015b60405180910390f35b61014061013b366004610e51565b6104ef565b6040516101249190610e68565b61014061015b366004610ec5565b6105b4565b6100f061016e366004610e51565b5f6020819052908152604090206001810154600282015460039092015490916001600160a01b03908116919081169060ff600160a01b8204811691600160a81b90041685565b6101c76101c2366004610f23565b61061b565b604051908152602001610124565b6101c7610a4a565b6101c76101eb366004610fd9565b610a58565b6001546101c7565b6101c760015481565b61021461020f366004610e51565b610a83565b6040519015158152602001610124565b5f8181526020819052604090206003810154600160a01b900460ff166102915760405162461bcd60e51b815260206004820152601660248201527f43617073756c6520646f6573206e6f742065786973740000000000000000000060448201526064015b60405180910390fd5b6003810154600160a81b900460ff16156102ed5760405162461bcd60e51b815260206004820152601860248201527f43617073756c6520616c726561647920756e6c6f636b656400000000000000006044820152606401610288565b6102f682610a83565b6103425760405162461bcd60e51b815260206004820152601e60248201527f43617073756c652063616e6e6f7420626520756e6c6f636b65642079657400006044820152606401610288565b60028101546001600160a01b0316331480610369575060038101546001600160a01b031633145b6103b55760405162461bcd60e51b815260206004820152601d60248201527f4f6e6c79206f776e6572206f7220686569722063616e20756e6c6f636b0000006044820152606401610288565b60038101805460ff60a81b1916600160a81b179055604051339083907f0471bd7f29713f61eb505f5a380fdb81d65e4b4023b30ea5d79bd5ce94cd12ee905f90a35050565b5f818152602081815260408083208151815460e09481028201850190935260c081018381528594859485948594859490939192849284919084018282801561045f57602002820191905f5260205f20905b81548152602001906001019080831161044b575b5050509183525050600182015460208083019190915260028301546001600160a01b0390811660408085019190915260039094015490811660608085019190915260ff600160a01b830481161515608080870191909152600160a81b90930416151560a094850152918501519385015191850151908501519490920151929b909a50909850919650945092505050565b5f81815260208190526040902060030154606090600160a01b900460ff166105595760405162461bcd60e51b815260206004820152601660248201527f43617073756c6520646f6573206e6f74206578697374000000000000000000006044820152606401610288565b5f8281526020818152604091829020805483518184028101840190945280845290918301828280156105a857602002820191905f5260205f20905b815481526020019060010190808311610594575b50505050509050919050565b6001600160a01b0381165f908152600260209081526040918290208054835181840281018401909452808452606093928301828280156105a857602002820191905f5260205f20908154815260200190600101908083116105945750505050509050919050565b5f4283116106755760405162461bcd60e51b815260206004820152602160248201527f556e6c6f636b2074696d65206d75737420626520696e207468652066757475726044820152606560f81b6064820152608401610288565b85806106c35760405162461bcd60e51b815260206004820152600d60248201527f456d70747920636f6e74656e74000000000000000000000000000000000000006044820152606401610288565b5f8167ffffffffffffffff8111156106dd576106dd611001565b604051908082528060200260200182016040528015610706578160200160208202803683370190505b5090505f5b8281101561078f5761076a8a8a8381811061072857610728611015565b9050602002013589898080601f0160208091040260200160405190810160405280939291908181526020018383808284375f92019190915250610beb92505050565b82828151811061077c5761077c611015565b602090810291909101015260010161070b565b5060018054905f61079f83611029565b9190505592506040518060c00160405280828152602001868152602001336001600160a01b031681526020015f6001600160a01b0316866001600160a01b0316036107ea57336107ec565b855b6001600160a01b0316815260016020808301919091525f60409283018190528681528082529190912082518051919261082a92849290910190610dfd565b506020820151600182015560408201516002820180547fffffffffffffffffffffffff0000000000000000000000000000000000000000166001600160a01b03928316179055606083015160039092018054608085015160a090950151939092167fffffffffffffffffffffff00000000000000000000000000000000000000000090921691909117600160a01b931515939093029290921760ff60a81b1916600160a81b911515919091021790555f5b8281101561097d576109058282815181106108f8576108f8611015565b6020026020010151610bff565b5061092982828151811061091b5761091b611015565b602002602001015133610c0e565b506001600160a01b0385161580159061094b57506001600160a01b0385163314155b156109755761097382828151811061096557610965611015565b602002602001015186610c0e565b505b6001016108db565b50335f908152600260209081526040822080546001810182559083529120018390556001600160a01b038416158015906109c057506001600160a01b0384163314155b156109f0576001600160a01b0384165f908152600260209081526040822080546001810182559083529120018390555b836001600160a01b0316336001600160a01b0316847f59305ed17a79363e74b0dfaa670d191baadcba0101c70746a321c492f3ee0cbb88604051610a3691815260200190565b60405180910390a450509695505050505050565b5f610a53610c20565b905090565b6002602052815f5260405f208181548110610a71575f80fd5b905f5260205f20015f91509150505481565b5f818152602081815260408083208151815460e09481028201850190935260c08101838152859491938492849190840182828015610ade57602002820191905f5260205f20905b815481526020019060010190808311610aca575b50505091835250506001820154602082015260028201546001600160a01b039081166040830152600390920154918216606082015260ff600160a01b830481161515608080840191909152600160a81b90930416151560a090910152810151909150610b8c5760405162461bcd60e51b815260206004820152601660248201527f43617073756c6520646f6573206e6f74206578697374000000000000000000006044820152606401610288565b8060a0015115610bde5760405162461bcd60e51b815260206004820152601860248201527f43617073756c6520616c726561647920756e6c6f636b656400000000000000006044820152606401610288565b6020015142101592915050565b5f610bf883836004610c54565b9392505050565b5f610c0a8230610d74565b5090565b5f610c198383610d74565b5090919050565b5f46600103610c2f5750600190565b4662aa36a703610c40575061271190565b46617a6903610c4f57505f1990565b505f90565b7f9e7b61f58c47dc699ac88507c4f5bb9f121c03808c5676a8078fe583e46497015460405163045fc19560e11b81525f917f9e7b61f58c47dc699ac88507c4f5bb9f121c03808c5676a8078fe583e4649700916001600160a01b03909116906308bf832a90610ccd90889033908990899060040161104d565b6020604051808303815f875af1158015610ce9573d5f5f3e3d5ffd5b505050506040513d601f19601f82011682018060405250810190610d0d91906110bc565b8154604051630f8e573b60e21b8152600481018390523360248201529193506001600160a01b031690633e395cec906044015f604051808303815f87803b158015610d56575f5ffd5b505af1158015610d68573d5f5f3e3d5ffd5b50505050509392505050565b5f7f9e7b61f58c47dc699ac88507c4f5bb9f121c03808c5676a8078fe583e46497008054604051635ca4b5b160e11b8152600481018690526001600160a01b03858116602483015292935091169063b9496b62906044015f604051808303815f87803b158015610de2575f5ffd5b505af1158015610df4573d5f5f3e3d5ffd5b50505050505050565b828054828255905f5260205f20908101928215610e36579160200282015b82811115610e36578251825591602001919060010190610e1b565b50610c0a9291505b80821115610c0a575f8155600101610e3e565b5f60208284031215610e61575f5ffd5b5035919050565b602080825282518282018190525f918401906040840190835b81811015610e9f578351835260209384019390920191600101610e81565b509095945050505050565b80356001600160a01b0381168114610ec0575f5ffd5b919050565b5f60208284031215610ed5575f5ffd5b610bf882610eaa565b5f5f83601f840112610eee575f5ffd5b50813567ffffffffffffffff811115610f05575f5ffd5b602083019150836020828501011115610f1c575f5ffd5b9250929050565b5f5f5f5f5f5f60808789031215610f38575f5ffd5b863567ffffffffffffffff811115610f4e575f5ffd5b8701601f81018913610f5e575f5ffd5b803567ffffffffffffffff811115610f74575f5ffd5b8960208260051b8401011115610f88575f5ffd5b60209182019750955087013567ffffffffffffffff811115610fa8575f5ffd5b610fb489828a01610ede565b90955093505060408701359150610fcd60608801610eaa565b90509295509295509295565b5f5f60408385031215610fea575f5ffd5b610ff383610eaa565b946020939093013593505050565b634e487b7160e01b5f52604160045260245ffd5b634e487b7160e01b5f52603260045260245ffd5b5f6001820161104657634e487b7160e01b5f52601160045260245ffd5b5060010190565b8481526001600160a01b0384166020820152608060408201525f8351806080840152806020860160a085015e5f60a0828501015260a0601f19601f830116840101915050605483106110ad57634e487b7160e01b5f52602160045260245ffd5b82606083015295945050505050565b5f602082840312156110cc575f5ffd5b505191905056fea164736f6c634300081b000a",
  "devdoc": {
    "author": "TimeCapsule DApp",
    "kind": "dev",
    "methods": {
      "canUnlock(uint256)": {
        "details": "This function uses FHE to compare timestamps in encrypted state",
        "params": {
          "capsuleId": "The ID of the capsule"
        },
        "returns": {
          "_0": "canUnlock Whether the capsule can be unlocked"
        }
      },
      "createCapsule(bytes32[],bytes,uint256,address)": {
        "params": {
          "encryptedContentChunks": "The encrypted content chunks to store",
          "heir": "Optional address of the heir who can unlock the capsule",
          "inputProof": "The input proof for the encrypted content (covers all chunks)",
          "unlockTime": "The timestamp when the capsule can be unlocked"
        },
        "returns": {
          "capsuleId": "The ID of the created capsule"
        }
      },
      "getCapsuleInfo(uint256)": {
        "params": {
          "capsuleId": "The ID of the capsule"
        },
        "returns": {
          "exists": "Whether the capsule exists",
          "heir": "The heir address",
          "owner": "The owner address",
          "unlockTime": "The unlock timestamp",
          "unlocked": "Whether the capsule has been unlocked"
        }
      },
      "getEncryptedContents(uint256)": {
        "params": {
          "capsuleId": "The ID of the capsule"
        },
        "returns": {
          "_0": "The encrypted content chunks"
        }
      },
      "getTotalCapsules()": {
        "returns": {
          "_0": "The total capsule count"
        }
      },
      "getUserCapsules(address)": {
        "params": {
          "user": "The user address"
        },
        "returns": {
          "_0": "An array of capsule IDs"
        }
      },
      "unlockCapsule(uint256)": {
        "details": "This function only marks the capsule as unlocked. The actual decryption happens off-chain using Relayer SDK",
        "params": {
          "capsuleId": "The ID of the capsule to unlock"
        }
      }
    },
    "title": "TimeCapsule - Encrypted Time-Locked Capsule DApp",
    "version": 1
  },
  "userdoc": {
    "errors": {
      "ZamaProtocolUnsupported()": [
        {
          "notice": "Returned if the Zama protocol is not supported on the current chain"
        }
      ]
    },
    "events": {
      "CapsuleCreated(uint256,address,address,uint256)": {
        "notice": "Event emitted when a new capsule is created"
      },
      "CapsuleUnlocked(uint256,address)": {
        "notice": "Event emitted when a capsule is unlocked"
      }
    },
    "kind": "user",
    "methods": {
      "canUnlock(uint256)": {
        "notice": "Check if a capsule can be unlocked (time-based check in encrypted state)"
      },
      "capsuleCounter()": {
        "notice": "Counter for capsule IDs"
      },
      "capsules(uint256)": {
        "notice": "Mapping from capsule ID to capsule data"
      },
      "createCapsule(bytes32[],bytes,uint256,address)": {
        "notice": "Create a new time capsule with encrypted content"
      },
      "getCapsuleInfo(uint256)": {
        "notice": "Get capsule metadata (public information)"
      },
      "getEncryptedContents(uint256)": {
        "notice": "Get the encrypted content chunks of a capsule (only accessible by authorized users)"
      },
      "getTotalCapsules()": {
        "notice": "Get the total number of capsules"
      },
      "getUserCapsules(address)": {
        "notice": "Get all capsule IDs for a user"
      },
      "unlockCapsule(uint256)": {
        "notice": "Unlock a capsule (marks it as unlocked, content can be decrypted off-chain)"
      },
      "userCapsules(address,uint256)": {
        "notice": "Mapping from user address to their capsule IDs"
      }
    },
    "notice": "A contract that allows users to create encrypted time capsules that can only be unlocked after a specified time",
    "version": 1
  },
  "storageLayout": {
    "storage": [
      {
        "astId": 39204,
        "contract": "contracts/TimeCapsule.sol:TimeCapsule",
        "label": "capsules",
        "offset": 0,
        "slot": "0",
        "type": "t_mapping(t_uint256,t_struct(Capsule)39198_storage)"
      },
      {
        "astId": 39207,
        "contract": "contracts/TimeCapsule.sol:TimeCapsule",
        "label": "capsuleCounter",
        "offset": 0,
        "slot": "1",
        "type": "t_uint256"
      },
      {
        "astId": 39213,
        "contract": "contracts/TimeCapsule.sol:TimeCapsule",
        "label": "userCapsules",
        "offset": 0,
        "slot": "2",
        "type": "t_mapping(t_address,t_array(t_uint256)dyn_storage)"
      }
    ],
    "types": {
      "t_address": {
        "encoding": "inplace",
        "label": "address",
        "numberOfBytes": "20"
      },
      "t_array(t_uint256)dyn_storage": {
        "base": "t_uint256",
        "encoding": "dynamic_array",
        "label": "uint256[]",
        "numberOfBytes": "32"
      },
      "t_array(t_userDefinedValueType(euint32)39612)dyn_storage": {
        "base": "t_userDefinedValueType(euint32)39612",
        "encoding": "dynamic_array",
        "label": "euint32[]",
        "numberOfBytes": "32"
      },
      "t_bool": {
        "encoding": "inplace",
        "label": "bool",
        "numberOfBytes": "1"
      },
      "t_mapping(t_address,t_array(t_uint256)dyn_storage)": {
        "encoding": "mapping",
        "key": "t_address",
        "label": "mapping(address => uint256[])",
        "numberOfBytes": "32",
        "value": "t_array(t_uint256)dyn_storage"
      },
      "t_mapping(t_uint256,t_struct(Capsule)39198_storage)": {
        "encoding": "mapping",
        "key": "t_uint256",
        "label": "mapping(uint256 => struct TimeCapsule.Capsule)",
        "numberOfBytes": "32",
        "value": "t_struct(Capsule)39198_storage"
      },
      "t_struct(Capsule)39198_storage": {
        "encoding": "inplace",
        "label": "struct TimeCapsule.Capsule",
        "members": [
          {
            "astId": 39187,
            "contract": "contracts/TimeCapsule.sol:TimeCapsule",
            "label": "encryptedContentChunks",
            "offset": 0,
            "slot": "0",
            "type": "t_array(t_userDefinedValueType(euint32)39612)dyn_storage"
          },
          {
            "astId": 39189,
            "contract": "contracts/TimeCapsule.sol:TimeCapsule",
            "label": "unlockTime",
            "offset": 0,
            "slot": "1",
            "type": "t_uint256"
          },
          {
            "astId": 39191,
            "contract": "contracts/TimeCapsule.sol:TimeCapsule",
            "label": "owner",
            "offset": 0,
            "slot": "2",
            "type": "t_address"
          },
          {
            "astId": 39193,
            "contract": "contracts/TimeCapsule.sol:TimeCapsule",
            "label": "heir",
            "offset": 0,
            "slot": "3",
            "type": "t_address"
          },
          {
            "astId": 39195,
            "contract": "contracts/TimeCapsule.sol:TimeCapsule",
            "label": "exists",
            "offset": 20,
            "slot": "3",
            "type": "t_bool"
          },
          {
            "astId": 39197,
            "contract": "contracts/TimeCapsule.sol:TimeCapsule",
            "label": "unlocked",
            "offset": 21,
            "slot": "3",
            "type": "t_bool"
          }
        ],
        "numberOfBytes": "128"
      },
      "t_uint256": {
        "encoding": "inplace",
        "label": "uint256",
        "numberOfBytes": "32"
      },
      "t_userDefinedValueType(euint32)39612": {
        "encoding": "inplace",
        "label": "euint32",
        "numberOfBytes": "32"
      }
    }
  }
}